{
  "_format": "hh-sol-artifact-1",
  "contractName": "MyEpicNFT",
  "sourceName": "contracts/MyEpicNFT.sol",
  "abi": [
    {
      "inputs": [],
      "stateMutability": "nonpayable",
      "type": "constructor"
    },
    {
      "anonymous": false,
      "inputs": [
        {
          "indexed": true,
          "internalType": "address",
          "name": "owner",
          "type": "address"
        },
        {
          "indexed": true,
          "internalType": "address",
          "name": "approved",
          "type": "address"
        },
        {
          "indexed": true,
          "internalType": "uint256",
          "name": "tokenId",
          "type": "uint256"
        }
      ],
      "name": "Approval",
      "type": "event"
    },
    {
      "anonymous": false,
      "inputs": [
        {
          "indexed": true,
          "internalType": "address",
          "name": "owner",
          "type": "address"
        },
        {
          "indexed": true,
          "internalType": "address",
          "name": "operator",
          "type": "address"
        },
        {
          "indexed": false,
          "internalType": "bool",
          "name": "approved",
          "type": "bool"
        }
      ],
      "name": "ApprovalForAll",
      "type": "event"
    },
    {
      "anonymous": false,
      "inputs": [
        {
          "indexed": false,
          "internalType": "address",
          "name": "sender",
          "type": "address"
        },
        {
          "indexed": false,
          "internalType": "uint256",
          "name": "tokenId",
          "type": "uint256"
        }
      ],
      "name": "NewEpicNFTMinted",
      "type": "event"
    },
    {
      "anonymous": false,
      "inputs": [
        {
          "indexed": true,
          "internalType": "address",
          "name": "from",
          "type": "address"
        },
        {
          "indexed": true,
          "internalType": "address",
          "name": "to",
          "type": "address"
        },
        {
          "indexed": true,
          "internalType": "uint256",
          "name": "tokenId",
          "type": "uint256"
        }
      ],
      "name": "Transfer",
      "type": "event"
    },
    {
      "inputs": [
        {
          "internalType": "address",
          "name": "to",
          "type": "address"
        },
        {
          "internalType": "uint256",
          "name": "tokenId",
          "type": "uint256"
        }
      ],
      "name": "approve",
      "outputs": [],
      "stateMutability": "nonpayable",
      "type": "function"
    },
    {
      "inputs": [
        {
          "internalType": "address",
          "name": "owner",
          "type": "address"
        }
      ],
      "name": "balanceOf",
      "outputs": [
        {
          "internalType": "uint256",
          "name": "",
          "type": "uint256"
        }
      ],
      "stateMutability": "view",
      "type": "function"
    },
    {
      "inputs": [
        {
          "internalType": "uint256",
          "name": "tokenId",
          "type": "uint256"
        }
      ],
      "name": "getApproved",
      "outputs": [
        {
          "internalType": "address",
          "name": "",
          "type": "address"
        }
      ],
      "stateMutability": "view",
      "type": "function"
    },
    {
      "inputs": [
        {
          "internalType": "address",
          "name": "owner",
          "type": "address"
        },
        {
          "internalType": "address",
          "name": "operator",
          "type": "address"
        }
      ],
      "name": "isApprovedForAll",
      "outputs": [
        {
          "internalType": "bool",
          "name": "",
          "type": "bool"
        }
      ],
      "stateMutability": "view",
      "type": "function"
    },
    {
      "inputs": [],
      "name": "makeAnEpicNFT",
      "outputs": [],
      "stateMutability": "nonpayable",
      "type": "function"
    },
    {
      "inputs": [],
      "name": "name",
      "outputs": [
        {
          "internalType": "string",
          "name": "",
          "type": "string"
        }
      ],
      "stateMutability": "view",
      "type": "function"
    },
    {
      "inputs": [
        {
          "internalType": "uint256",
          "name": "tokenId",
          "type": "uint256"
        }
      ],
      "name": "ownerOf",
      "outputs": [
        {
          "internalType": "address",
          "name": "",
          "type": "address"
        }
      ],
      "stateMutability": "view",
      "type": "function"
    },
    {
      "inputs": [
        {
          "internalType": "uint256",
          "name": "tokenId",
          "type": "uint256"
        }
      ],
      "name": "pickRandomColor",
      "outputs": [
        {
          "internalType": "string",
          "name": "",
          "type": "string"
        }
      ],
      "stateMutability": "view",
      "type": "function"
    },
    {
      "inputs": [
        {
          "internalType": "uint256",
          "name": "tokenId",
          "type": "uint256"
        }
      ],
      "name": "pickRandomFirstWord",
      "outputs": [
        {
          "internalType": "string",
          "name": "",
          "type": "string"
        }
      ],
      "stateMutability": "view",
      "type": "function"
    },
    {
      "inputs": [
        {
          "internalType": "uint256",
          "name": "tokenId",
          "type": "uint256"
        }
      ],
      "name": "pickRandomSecondWord",
      "outputs": [
        {
          "internalType": "string",
          "name": "",
          "type": "string"
        }
      ],
      "stateMutability": "view",
      "type": "function"
    },
    {
      "inputs": [
        {
          "internalType": "uint256",
          "name": "tokenId",
          "type": "uint256"
        }
      ],
      "name": "pickRandomThirdWord",
      "outputs": [
        {
          "internalType": "string",
          "name": "",
          "type": "string"
        }
      ],
      "stateMutability": "view",
      "type": "function"
    },
    {
      "inputs": [
        {
          "internalType": "address",
          "name": "from",
          "type": "address"
        },
        {
          "internalType": "address",
          "name": "to",
          "type": "address"
        },
        {
          "internalType": "uint256",
          "name": "tokenId",
          "type": "uint256"
        }
      ],
      "name": "safeTransferFrom",
      "outputs": [],
      "stateMutability": "nonpayable",
      "type": "function"
    },
    {
      "inputs": [
        {
          "internalType": "address",
          "name": "from",
          "type": "address"
        },
        {
          "internalType": "address",
          "name": "to",
          "type": "address"
        },
        {
          "internalType": "uint256",
          "name": "tokenId",
          "type": "uint256"
        },
        {
          "internalType": "bytes",
          "name": "_data",
          "type": "bytes"
        }
      ],
      "name": "safeTransferFrom",
      "outputs": [],
      "stateMutability": "nonpayable",
      "type": "function"
    },
    {
      "inputs": [
        {
          "internalType": "address",
          "name": "operator",
          "type": "address"
        },
        {
          "internalType": "bool",
          "name": "approved",
          "type": "bool"
        }
      ],
      "name": "setApprovalForAll",
      "outputs": [],
      "stateMutability": "nonpayable",
      "type": "function"
    },
    {
      "inputs": [
        {
          "internalType": "bytes4",
          "name": "interfaceId",
          "type": "bytes4"
        }
      ],
      "name": "supportsInterface",
      "outputs": [
        {
          "internalType": "bool",
          "name": "",
          "type": "bool"
        }
      ],
      "stateMutability": "view",
      "type": "function"
    },
    {
      "inputs": [],
      "name": "symbol",
      "outputs": [
        {
          "internalType": "string",
          "name": "",
          "type": "string"
        }
      ],
      "stateMutability": "view",
      "type": "function"
    },
    {
      "inputs": [
        {
          "internalType": "uint256",
          "name": "tokenId",
          "type": "uint256"
        }
      ],
      "name": "tokenURI",
      "outputs": [
        {
          "internalType": "string",
          "name": "",
          "type": "string"
        }
      ],
      "stateMutability": "view",
      "type": "function"
    },
    {
      "inputs": [
        {
          "internalType": "address",
          "name": "from",
          "type": "address"
        },
        {
          "internalType": "address",
          "name": "to",
          "type": "address"
        },
        {
          "internalType": "uint256",
          "name": "tokenId",
          "type": "uint256"
        }
      ],
      "name": "transferFrom",
      "outputs": [],
      "stateMutability": "nonpayable",
      "type": "function"
    }
  ],
  "bytecode": "0x608060405260405180610100016040528060d5815260200162004b2760d59139600890805190602001906200003692919062000d7c565b5060405180608001604052806056815260200162004ad160569139600990805190602001906200006892919062000d7c565b50604051806101e001604052806040518060400160405280600581526020017f4b7665746100000000000000000000000000000000000000000000000000000081525081526020016040518060400160405280600681526020017f4f6c65736a61000000000000000000000000000000000000000000000000000081525081526020016040518060400160405280600681526020017f417374726964000000000000000000000000000000000000000000000000000081525081526020016040518060400160405280600481526020017f4b6169650000000000000000000000000000000000000000000000000000000081525081526020016040518060400160405280600481526020017f4a696c6c0000000000000000000000000000000000000000000000000000000081525081526020016040518060400160405280600781526020017f4c7563696e64610000000000000000000000000000000000000000000000000081525081526020016040518060400160405280600581526020017f4c6568746900000000000000000000000000000000000000000000000000000081525081526020016040518060400160405280600781526020017f537573616e6e610000000000000000000000000000000000000000000000000081525081526020016040518060400160405280600481526020017f537665610000000000000000000000000000000000000000000000000000000081525081526020016040518060400160405280600681526020017f4d6161726a61000000000000000000000000000000000000000000000000000081525081526020016040518060400160405280600581526020017f4e6569646100000000000000000000000000000000000000000000000000000081525081526020016040518060400160405280600581526020017f456c69746100000000000000000000000000000000000000000000000000000081525081526020016040518060400160405280600781526020017f427269676974610000000000000000000000000000000000000000000000000081525081526020016040518060400160405280600681526020017f416e656c6c65000000000000000000000000000000000000000000000000000081525081526020016040518060400160405280600581526020017f4d6162656c000000000000000000000000000000000000000000000000000000815250815250600a90600f620003fa92919062000e0d565b50604051806101e001604052806040518060400160405280600681526020017f4d69726a616d000000000000000000000000000000000000000000000000000081525081526020016040518060400160405280600581526020017f486569646900000000000000000000000000000000000000000000000000000081525081526020016040518060400160405280600581526020017f536f66696100000000000000000000000000000000000000000000000000000081525081526020016040518060400160405280600581526020017f4d6162656c00000000000000000000000000000000000000000000000000000081525081526020016040518060400160405280600781526020017f4d6572696c696e0000000000000000000000000000000000000000000000000081525081526020016040518060400160405280600481526020017f456576690000000000000000000000000000000000000000000000000000000081525081526020016040518060400160405280600481526020017f48656c690000000000000000000000000000000000000000000000000000000081525081526020016040518060400160405280600581526020017f566972766500000000000000000000000000000000000000000000000000000081525081526020016040518060400160405280600481526020017f496c6c610000000000000000000000000000000000000000000000000000000081525081526020016040518060400160405280600581526020017f4a61616e6100000000000000000000000000000000000000000000000000000081525081526020016040518060400160405280600581526020017f4c65656c6500000000000000000000000000000000000000000000000000000081525081526020016040518060400160405280600581526020017f4d61696a6100000000000000000000000000000000000000000000000000000081525081526020016040518060400160405280600681526020017f41676e657461000000000000000000000000000000000000000000000000000081525081526020016040518060400160405280600681526020017f456c69696e61000000000000000000000000000000000000000000000000000081525081526020016040518060400160405280600581526020017f4761696461000000000000000000000000000000000000000000000000000000815250815250600b90600f6200078c92919062000e0d565b50604051806101e001604052806040518060400160405280600581526020017f4d616c766500000000000000000000000000000000000000000000000000000081525081526020016040518060400160405280600581526020017f4c696c697400000000000000000000000000000000000000000000000000000081525081526020016040518060400160405280600581526020017f4a61676e6100000000000000000000000000000000000000000000000000000081525081526020016040518060400160405280600781526020017f536f6c766569670000000000000000000000000000000000000000000000000081525081526020016040518060400160405280600581526020017f4b6174726500000000000000000000000000000000000000000000000000000081525081526020016040518060400160405280600481526020017f4d6172690000000000000000000000000000000000000000000000000000000081525081526020016040518060400160405280600481526020017f416976650000000000000000000000000000000000000000000000000000000081525081526020016040518060400160405280600581526020017f4865696c6900000000000000000000000000000000000000000000000000000081525081526020016040518060400160405280600681526020017f41696e696b61000000000000000000000000000000000000000000000000000081525081526020016040518060400160405280600581526020017f446f72697300000000000000000000000000000000000000000000000000000081525081526020016040518060400160405280600781526020017f4d6172676974610000000000000000000000000000000000000000000000000081525081526020016040518060400160405280600581526020017f456469746800000000000000000000000000000000000000000000000000000081525081526020016040518060400160405280600381526020017f526561000000000000000000000000000000000000000000000000000000000081525081526020016040518060400160405280600581526020017f456c696e6500000000000000000000000000000000000000000000000000000081525081526020016040518060400160405280600781526020017f4b72697374696e00000000000000000000000000000000000000000000000000815250815250600c90600f62000b1e92919062000e0d565b5060405180604001604052806040518060400160405280600781526020017f233030303030300000000000000000000000000000000000000000000000000081525081526020016040518060400160405280600781526020017f2346464646464600000000000000000000000000000000000000000000000000815250815250600d90600262000bb092919062000e74565b5034801562000bbe57600080fd5b506040518060400160405280601081526020017f47656e6572617465644e616d654e4654000000000000000000000000000000008152506040518060400160405280600481526020017f4e414d4500000000000000000000000000000000000000000000000000000000815250816000908051906020019062000c4392919062000d7c565b50806001908051906020019062000c5c92919062000d7c565b50505062000caa6040518060400160405280601e81526020017f54686973206973206d79204e465420636f6e74726163742e20576f616821000081525062000cb060201b6200122a1760201c565b62001095565b62000d508160405160240162000cc7919062000fa9565b6040516020818303038152906040527f41304fac000000000000000000000000000000000000000000000000000000007bffffffffffffffffffffffffffffffffffffffffffffffffffffffff19166020820180517bffffffffffffffffffffffffffffffffffffffffffffffffffffffff838183161783525050505062000d5360201b60201c565b50565b60008151905060006a636f6e736f6c652e6c6f679050602083016000808483855afa5050505050565b82805462000d8a906200101f565b90600052602060002090601f01602090048101928262000dae576000855562000dfa565b82601f1062000dc957805160ff191683800117855562000dfa565b8280016001018555821562000dfa579182015b8281111562000df957825182559160200191906001019062000ddc565b5b50905062000e09919062000edb565b5090565b82805482825590600052602060002090810192821562000e61579160200282015b8281111562000e6057825182908051906020019062000e4f92919062000d7c565b509160200191906001019062000e2e565b5b50905062000e70919062000efa565b5090565b82805482825590600052602060002090810192821562000ec8579160200282015b8281111562000ec757825182908051906020019062000eb692919062000d7c565b509160200191906001019062000e95565b5b50905062000ed7919062000efa565b5090565b5b8082111562000ef657600081600090555060010162000edc565b5090565b5b8082111562000f1e576000818162000f14919062000f22565b5060010162000efb565b5090565b50805462000f30906200101f565b6000825580601f1062000f44575062000f65565b601f01602090049060005260206000209081019062000f64919062000edb565b5b50565b600062000f758262000fcd565b62000f81818562000fd8565b935062000f9381856020860162000fe9565b62000f9e8162001084565b840191505092915050565b6000602082019050818103600083015262000fc5818462000f68565b905092915050565b600081519050919050565b600082825260208201905092915050565b60005b838110156200100957808201518184015260208101905062000fec565b8381111562001019576000848401525b50505050565b600060028204905060018216806200103857607f821691505b602082108114156200104f576200104e62001055565b5b50919050565b7f4e487b7100000000000000000000000000000000000000000000000000000000600052602260045260246000fd5b6000601f19601f8301169050919050565b613a2c80620010a56000396000f3fe608060405234801561001057600080fd5b50600436106101165760003560e01c806370a08231116100a2578063b88d4fde11610071578063b88d4fde14610317578063c575757a14610333578063c87b56dd14610363578063de9d132f14610393578063e985e9c51461039d57610116565b806370a082311461027d57806395d89b41146102ad578063a22cb465146102cb578063b187301f146102e757610116565b806323b872dd116100e957806323b872dd146101b55780632de38d68146101d157806342842e0e14610201578063514dc8c61461021d5780636352211e1461024d57610116565b806301ffc9a71461011b57806306fdde031461014b578063081812fc14610169578063095ea7b314610199575b600080fd5b6101356004803603810190610130919061262a565b6103cd565b60405161014291906132a2565b60405180910390f35b6101536104af565b60405161016091906132bd565b60405180910390f35b610183600480360381019061017e919061267c565b610541565b6040516101909190613212565b60405180910390f35b6101b360048036038101906101ae91906125ee565b6105c6565b005b6101cf60048036038101906101ca91906124e8565b6106de565b005b6101eb60048036038101906101e6919061267c565b61073e565b6040516101f891906132bd565b60405180910390f35b61021b600480360381019061021691906124e8565b61085c565b005b6102376004803603810190610232919061267c565b61087c565b60405161024491906132bd565b60405180910390f35b6102676004803603810190610262919061267c565b61099a565b6040516102749190613212565b60405180910390f35b61029760048036038101906102929190612483565b610a4c565b6040516102a4919061351d565b60405180910390f35b6102b5610b04565b6040516102c291906132bd565b60405180910390f35b6102e560048036038101906102e091906125b2565b610b96565b005b61030160048036038101906102fc919061267c565b610bac565b60405161030e91906132bd565b60405180910390f35b610331600480360381019061032c9190612537565b610cca565b005b61034d6004803603810190610348919061267c565b610d2c565b60405161035a91906132bd565b60405180910390f35b61037d6004803603810190610378919061267c565b610e4a565b60405161038a91906132bd565b60405180910390f35b61039b610f9c565b005b6103b760048036038101906103b291906124ac565b611196565b6040516103c491906132a2565b60405180910390f35b60007f80ac58cd000000000000000000000000000000000000000000000000000000007bffffffffffffffffffffffffffffffffffffffffffffffffffffffff1916827bffffffffffffffffffffffffffffffffffffffffffffffffffffffff1916148061049857507f5b5e139f000000000000000000000000000000000000000000000000000000007bffffffffffffffffffffffffffffffffffffffffffffffffffffffff1916827bffffffffffffffffffffffffffffffffffffffffffffffffffffffff1916145b806104a857506104a7826112c3565b5b9050919050565b6060600080546104be906137bc565b80601f01602080910402602001604051908101604052809291908181526020018280546104ea906137bc565b80156105375780601f1061050c57610100808354040283529160200191610537565b820191906000526020600020905b81548152906001019060200180831161051a57829003601f168201915b5050505050905090565b600061054c8261132d565b61058b576040517f08c379a00000000000000000000000000000000000000000000000000000000081526004016105829061347d565b60405180910390fd5b6004600083815260200190815260200160002060009054906101000a900473ffffffffffffffffffffffffffffffffffffffff169050919050565b60006105d18261099a565b90508073ffffffffffffffffffffffffffffffffffffffff168373ffffffffffffffffffffffffffffffffffffffff161415610642576040517f08c379a0000000000000000000000000000000000000000000000000000000008152600401610639906134dd565b60405180910390fd5b8073ffffffffffffffffffffffffffffffffffffffff16610661611399565b73ffffffffffffffffffffffffffffffffffffffff161480610690575061068f8161068a611399565b611196565b5b6106cf576040517f08c379a00000000000000000000000000000000000000000000000000000000081526004016106c6906133bd565b60405180910390fd5b6106d983836113a1565b505050565b6106ef6106e9611399565b8261145a565b61072e576040517f08c379a0000000000000000000000000000000000000000000000000000000008152600401610725906134fd565b60405180910390fd5b610739838383611538565b505050565b6060600061077261074e84611794565b60405160200161075e91906131ac565b604051602081830303815290604052611941565b9050600a80549050816107859190613837565b9050600a81815481106107c1577f4e487b7100000000000000000000000000000000000000000000000000000000600052603260045260246000fd5b9060005260206000200180546107d6906137bc565b80601f0160208091040260200160405190810160405280929190818152602001828054610802906137bc565b801561084f5780601f106108245761010080835404028352916020019161084f565b820191906000526020600020905b81548152906001019060200180831161083257829003601f168201915b5050505050915050919050565b61087783838360405180602001604052806000815250610cca565b505050565b606060006108b061088c84611794565b60405160200161089c91906131f0565b604051602081830303815290604052611941565b9050600d80549050816108c39190613837565b9050600d81815481106108ff577f4e487b7100000000000000000000000000000000000000000000000000000000600052603260045260246000fd5b906000526020600020018054610914906137bc565b80601f0160208091040260200160405190810160405280929190818152602001828054610940906137bc565b801561098d5780601f106109625761010080835404028352916020019161098d565b820191906000526020600020905b81548152906001019060200180831161097057829003601f168201915b5050505050915050919050565b6000806002600084815260200190815260200160002060009054906101000a900473ffffffffffffffffffffffffffffffffffffffff169050600073ffffffffffffffffffffffffffffffffffffffff168173ffffffffffffffffffffffffffffffffffffffff161415610a43576040517f08c379a0000000000000000000000000000000000000000000000000000000008152600401610a3a906133fd565b60405180910390fd5b80915050919050565b60008073ffffffffffffffffffffffffffffffffffffffff168273ffffffffffffffffffffffffffffffffffffffff161415610abd576040517f08c379a0000000000000000000000000000000000000000000000000000000008152600401610ab4906133dd565b60405180910390fd5b600360008373ffffffffffffffffffffffffffffffffffffffff1673ffffffffffffffffffffffffffffffffffffffff168152602001908152602001600020549050919050565b606060018054610b13906137bc565b80601f0160208091040260200160405190810160405280929190818152602001828054610b3f906137bc565b8015610b8c5780601f10610b6157610100808354040283529160200191610b8c565b820191906000526020600020905b815481529060010190602001808311610b6f57829003601f168201915b5050505050905090565b610ba8610ba1611399565b8383611974565b5050565b60606000610be0610bbc84611794565b604051602001610bcc9190613145565b604051602081830303815290604052611941565b9050600b8054905081610bf39190613837565b9050600b8181548110610c2f577f4e487b7100000000000000000000000000000000000000000000000000000000600052603260045260246000fd5b906000526020600020018054610c44906137bc565b80601f0160208091040260200160405190810160405280929190818152602001828054610c70906137bc565b8015610cbd5780601f10610c9257610100808354040283529160200191610cbd565b820191906000526020600020905b815481529060010190602001808311610ca057829003601f168201915b5050505050915050919050565b610cdb610cd5611399565b8361145a565b610d1a576040517f08c379a0000000000000000000000000000000000000000000000000000000008152600401610d11906134fd565b60405180910390fd5b610d2684848484611ae1565b50505050565b60606000610d60610d3c84611794565b604051602001610d4c9190613123565b604051602081830303815290604052611941565b9050600c8054905081610d739190613837565b9050600c8181548110610daf577f4e487b7100000000000000000000000000000000000000000000000000000000600052603260045260246000fd5b906000526020600020018054610dc4906137bc565b80601f0160208091040260200160405190810160405280929190818152602001828054610df0906137bc565b8015610e3d5780601f10610e1257610100808354040283529160200191610e3d565b820191906000526020600020905b815481529060010190602001808311610e2057829003601f168201915b5050505050915050919050565b6060610e558261132d565b610e94576040517f08c379a0000000000000000000000000000000000000000000000000000000008152600401610e8b9061345d565b60405180910390fd5b6000600660008481526020019081526020016000208054610eb4906137bc565b80601f0160208091040260200160405190810160405280929190818152602001828054610ee0906137bc565b8015610f2d5780601f10610f0257610100808354040283529160200191610f2d565b820191906000526020600020905b815481529060010190602001808311610f1057829003601f168201915b505050505090506000610f3e611b3d565b9050600081511415610f54578192505050610f97565b600082511115610f89578082604051602001610f71929190613085565b60405160208183030381529060405292505050610f97565b610f9284611b54565b925050505b919050565b6000610fa86007611bfb565b90506000610fb58261073e565b90506000610fc283610bac565b90506000610fcf84610d2c565b90506000838383604051602001610fe8939291906130a9565b604051602081830303815290604052905060006110048661087c565b9050600060088260098560405160200161102194939291906130da565b604051602081830303815290604052905060006110668461104184611c09565b604051602001611052929190613167565b604051602081830303815290604052611c09565b905060008160405160200161107b91906131ce565b60405160208183030381529060405290506110ca6040518060400160405280601581526020017f0a2d2d2d2d2d2d2d2d2d2d2d2d2d2d2d2d2d2d2d2d000000000000000000000081525061122a565b6110d38161122a565b6111116040518060400160405280601581526020017f2d2d2d2d2d2d2d2d2d2d2d2d2d2d2d2d2d2d2d2d0a000000000000000000000081525061122a565b61111b338a611dc7565b6111258982611de5565b61112f6007611e59565b611152604051806060016040528060258152602001613992602591398a33611e6f565b7febb98688741ffa4c7589bf325de30cf7becb63de567842e1ccdb6cb949fdc82c338a604051611183929190613279565b60405180910390a1505050505050505050565b6000600560008473ffffffffffffffffffffffffffffffffffffffff1673ffffffffffffffffffffffffffffffffffffffff16815260200190815260200160002060008373ffffffffffffffffffffffffffffffffffffffff1673ffffffffffffffffffffffffffffffffffffffff16815260200190815260200160002060009054906101000a900460ff16905092915050565b6112c08160405160240161123e91906132bd565b6040516020818303038152906040527f41304fac000000000000000000000000000000000000000000000000000000007bffffffffffffffffffffffffffffffffffffffffffffffffffffffff19166020820180517bffffffffffffffffffffffffffffffffffffffffffffffffffffffff8381831617835250505050611f0e565b50565b60007f01ffc9a7000000000000000000000000000000000000000000000000000000007bffffffffffffffffffffffffffffffffffffffffffffffffffffffff1916827bffffffffffffffffffffffffffffffffffffffffffffffffffffffff1916149050919050565b60008073ffffffffffffffffffffffffffffffffffffffff166002600084815260200190815260200160002060009054906101000a900473ffffffffffffffffffffffffffffffffffffffff1673ffffffffffffffffffffffffffffffffffffffff1614159050919050565b600033905090565b816004600083815260200190815260200160002060006101000a81548173ffffffffffffffffffffffffffffffffffffffff021916908373ffffffffffffffffffffffffffffffffffffffff160217905550808273ffffffffffffffffffffffffffffffffffffffff166114148361099a565b73ffffffffffffffffffffffffffffffffffffffff167f8c5be1e5ebec7d5bd14f71427d1e84f3dd0314c0f7b2291e5b200ac8c7c3b92560405160405180910390a45050565b60006114658261132d565b6114a4576040517f08c379a000000000000000000000000000000000000000000000000000000000815260040161149b9061339d565b60405180910390fd5b60006114af8361099a565b90508073ffffffffffffffffffffffffffffffffffffffff168473ffffffffffffffffffffffffffffffffffffffff16148061151e57508373ffffffffffffffffffffffffffffffffffffffff1661150684610541565b73ffffffffffffffffffffffffffffffffffffffff16145b8061152f575061152e8185611196565b5b91505092915050565b8273ffffffffffffffffffffffffffffffffffffffff166115588261099a565b73ffffffffffffffffffffffffffffffffffffffff16146115ae576040517f08c379a00000000000000000000000000000000000000000000000000000000081526004016115a59061349d565b60405180910390fd5b600073ffffffffffffffffffffffffffffffffffffffff168273ffffffffffffffffffffffffffffffffffffffff16141561161e576040517f08c379a00000000000000000000000000000000000000000000000000000000081526004016116159061335d565b60405180910390fd5b611629838383611f37565b6116346000826113a1565b6001600360008573ffffffffffffffffffffffffffffffffffffffff1673ffffffffffffffffffffffffffffffffffffffff168152602001908152602001600020600082825461168491906136d2565b925050819055506001600360008473ffffffffffffffffffffffffffffffffffffffff1673ffffffffffffffffffffffffffffffffffffffff16815260200190815260200160002060008282546116db91906135f1565b92505081905550816002600083815260200190815260200160002060006101000a81548173ffffffffffffffffffffffffffffffffffffffff021916908373ffffffffffffffffffffffffffffffffffffffff160217905550808273ffffffffffffffffffffffffffffffffffffffff168473ffffffffffffffffffffffffffffffffffffffff167fddf252ad1be2c89b69c2b068fc378daa952ba7f163c4a11628f55a4df523b3ef60405160405180910390a4505050565b606060008214156117dc576040518060400160405280600181526020017f3000000000000000000000000000000000000000000000000000000000000000815250905061193c565b600082905060005b6000821461180e5780806117f7906137ee565b915050600a826118079190613647565b91506117e4565b60008167ffffffffffffffff811115611850577f4e487b7100000000000000000000000000000000000000000000000000000000600052604160045260246000fd5b6040519080825280601f01601f1916602001820160405280156118825781602001600182028036833780820191505090505b5090505b600085146119355760018261189b91906136d2565b9150600a856118aa9190613837565b60306118b691906135f1565b60f81b8183815181106118f2577f4e487b7100000000000000000000000000000000000000000000000000000000600052603260045260246000fd5b60200101907effffffffffffffffffffffffffffffffffffffffffffffffffffffffffffff1916908160001a905350600a8561192e9190613647565b9450611886565b8093505050505b919050565b600081604051602001611954919061306e565b6040516020818303038152906040528051906020012060001c9050919050565b8173ffffffffffffffffffffffffffffffffffffffff168373ffffffffffffffffffffffffffffffffffffffff1614156119e3576040517f08c379a00000000000000000000000000000000000000000000000000000000081526004016119da9061337d565b60405180910390fd5b80600560008573ffffffffffffffffffffffffffffffffffffffff1673ffffffffffffffffffffffffffffffffffffffff16815260200190815260200160002060008473ffffffffffffffffffffffffffffffffffffffff1673ffffffffffffffffffffffffffffffffffffffff16815260200190815260200160002060006101000a81548160ff0219169083151502179055508173ffffffffffffffffffffffffffffffffffffffff168373ffffffffffffffffffffffffffffffffffffffff167f17307eab39ab6107e8899845ad3d59bd9653f200f220920489ca2b5937696c3183604051611ad491906132a2565b60405180910390a3505050565b611aec848484611538565b611af884848484611f3c565b611b37576040517f08c379a0000000000000000000000000000000000000000000000000000000008152600401611b2e9061331d565b60405180910390fd5b50505050565b606060405180602001604052806000815250905090565b6060611b5f8261132d565b611b9e576040517f08c379a0000000000000000000000000000000000000000000000000000000008152600401611b95906134bd565b60405180910390fd5b6000611ba8611b3d565b90506000815111611bc85760405180602001604052806000815250611bf3565b80611bd284611794565b604051602001611be3929190613085565b6040516020818303038152906040525b915050919050565b600081600001549050919050565b60606000825190506000811415611c325760405180602001604052806000815250915050611dc2565b60006003600283611c4391906135f1565b611c4d9190613647565b6004611c599190613678565b90506000602082611c6a91906135f1565b67ffffffffffffffff811115611ca9577f4e487b7100000000000000000000000000000000000000000000000000000000600052604160045260246000fd5b6040519080825280601f01601f191660200182016040528015611cdb5781602001600182028036833780820191505090505b50905060006040518060600160405280604081526020016139b7604091399050600181016020830160005b86811015611d7f5760038101905062ffffff818a015116603f8160121c168401518060081b905060ff603f83600c1c1686015116810190508060081b905060ff603f8360061c1686015116810190508060081b905060ff603f831686015116810190508060e01b90508084526004840193505050611d06565b506003860660018114611d995760028114611da957611db4565b613d3d60f01b6002830352611db4565b603d60f81b60018303525b508484525050819450505050505b919050565b611de18282604051806020016040528060008152506120d3565b5050565b611dee8261132d565b611e2d576040517f08c379a0000000000000000000000000000000000000000000000000000000008152600401611e249061341d565b60405180910390fd5b80600660008481526020019081526020016000209080519060200190611e5492919061230f565b505050565b6001816000016000828254019250508190555050565b611f09838383604051602401611e87939291906132df565b6040516020818303038152906040527fe3849f79000000000000000000000000000000000000000000000000000000007bffffffffffffffffffffffffffffffffffffffffffffffffffffffff19166020820180517bffffffffffffffffffffffffffffffffffffffffffffffffffffffff8381831617835250505050611f0e565b505050565b60008151905060006a636f6e736f6c652e6c6f679050602083016000808483855afa5050505050565b505050565b6000611f5d8473ffffffffffffffffffffffffffffffffffffffff1661212e565b156120c6578373ffffffffffffffffffffffffffffffffffffffff1663150b7a02611f86611399565b8786866040518563ffffffff1660e01b8152600401611fa8949392919061322d565b602060405180830381600087803b158015611fc257600080fd5b505af1925050508015611ff357506040513d601f19601f82011682018060405250810190611ff09190612653565b60015b612076573d8060008114612023576040519150601f19603f3d011682016040523d82523d6000602084013e612028565b606091505b5060008151141561206e576040517f08c379a00000000000000000000000000000000000000000000000000000000081526004016120659061331d565b60405180910390fd5b805181602001fd5b63150b7a0260e01b7bffffffffffffffffffffffffffffffffffffffffffffffffffffffff1916817bffffffffffffffffffffffffffffffffffffffffffffffffffffffff1916149150506120cb565b600190505b949350505050565b6120dd8383612141565b6120ea6000848484611f3c565b612129576040517f08c379a00000000000000000000000000000000000000000000000000000000081526004016121209061331d565b60405180910390fd5b505050565b600080823b905060008111915050919050565b600073ffffffffffffffffffffffffffffffffffffffff168273ffffffffffffffffffffffffffffffffffffffff1614156121b1576040517f08c379a00000000000000000000000000000000000000000000000000000000081526004016121a89061343d565b60405180910390fd5b6121ba8161132d565b156121fa576040517f08c379a00000000000000000000000000000000000000000000000000000000081526004016121f19061333d565b60405180910390fd5b61220660008383611f37565b6001600360008473ffffffffffffffffffffffffffffffffffffffff1673ffffffffffffffffffffffffffffffffffffffff168152602001908152602001600020600082825461225691906135f1565b92505081905550816002600083815260200190815260200160002060006101000a81548173ffffffffffffffffffffffffffffffffffffffff021916908373ffffffffffffffffffffffffffffffffffffffff160217905550808273ffffffffffffffffffffffffffffffffffffffff16600073ffffffffffffffffffffffffffffffffffffffff167fddf252ad1be2c89b69c2b068fc378daa952ba7f163c4a11628f55a4df523b3ef60405160405180910390a45050565b82805461231b906137bc565b90600052602060002090601f01602090048101928261233d5760008555612384565b82601f1061235657805160ff1916838001178555612384565b82800160010185558215612384579182015b82811115612383578251825591602001919060010190612368565b5b5090506123919190612395565b5090565b5b808211156123ae576000816000905550600101612396565b5090565b60006123c56123c084613569565b613538565b9050828152602081018484840111156123dd57600080fd5b6123e884828561377a565b509392505050565b6000813590506123ff81613935565b92915050565b6000813590506124148161394c565b92915050565b60008135905061242981613963565b92915050565b60008151905061243e81613963565b92915050565b600082601f83011261245557600080fd5b81356124658482602086016123b2565b91505092915050565b60008135905061247d8161397a565b92915050565b60006020828403121561249557600080fd5b60006124a3848285016123f0565b91505092915050565b600080604083850312156124bf57600080fd5b60006124cd858286016123f0565b92505060206124de858286016123f0565b9150509250929050565b6000806000606084860312156124fd57600080fd5b600061250b868287016123f0565b935050602061251c868287016123f0565b925050604061252d8682870161246e565b9150509250925092565b6000806000806080858703121561254d57600080fd5b600061255b878288016123f0565b945050602061256c878288016123f0565b935050604061257d8782880161246e565b925050606085013567ffffffffffffffff81111561259a57600080fd5b6125a687828801612444565b91505092959194509250565b600080604083850312156125c557600080fd5b60006125d3858286016123f0565b92505060206125e485828601612405565b9150509250929050565b6000806040838503121561260157600080fd5b600061260f858286016123f0565b92505060206126208582860161246e565b9150509250929050565b60006020828403121561263c57600080fd5b600061264a8482850161241a565b91505092915050565b60006020828403121561266557600080fd5b60006126738482850161242f565b91505092915050565b60006020828403121561268e57600080fd5b600061269c8482850161246e565b91505092915050565b6126ae81613706565b82525050565b6126bd81613718565b82525050565b60006126ce826135ae565b6126d881856135c4565b93506126e8818560208601613789565b6126f181613924565b840191505092915050565b6000612707826135b9565b61271181856135d5565b9350612721818560208601613789565b61272a81613924565b840191505092915050565b6000612740826135b9565b61274a81856135e6565b935061275a818560208601613789565b80840191505092915050565b60008154612773816137bc565b61277d81866135e6565b9450600182166000811461279857600181146127a9576127dc565b60ff198316865281860193506127dc565b6127b285613599565b60005b838110156127d4578154818901526001820191506020810190506127b5565b838801955050505b50505092915050565b60006127f26032836135d5565b91507f4552433732313a207472616e7366657220746f206e6f6e20455243373231526560008301527f63656976657220696d706c656d656e74657200000000000000000000000000006020830152604082019050919050565b6000612858601c836135d5565b91507f4552433732313a20746f6b656e20616c7265616479206d696e746564000000006000830152602082019050919050565b6000612898600a836135e6565b91507f54484952445f574f5244000000000000000000000000000000000000000000006000830152600a82019050919050565b60006128d86024836135d5565b91507f4552433732313a207472616e7366657220746f20746865207a65726f2061646460008301527f72657373000000000000000000000000000000000000000000000000000000006020830152604082019050919050565b600061293e6019836135d5565b91507f4552433732313a20617070726f766520746f2063616c6c6572000000000000006000830152602082019050919050565b600061297e600b836135e6565b91507f5345434f4e445f574f52440000000000000000000000000000000000000000006000830152600b82019050919050565b60006129be602c836135d5565b91507f4552433732313a206f70657261746f7220717565727920666f72206e6f6e657860008301527f697374656e7420746f6b656e00000000000000000000000000000000000000006020830152604082019050919050565b6000612a24604f836135e6565b91507f222c20226465736372697074696f6e223a202266656d616c65206e616d65206760008301527f656e657261746f72222c2022696d616765223a2022646174613a696d6167652f60208301527f7376672b786d6c3b6261736536342c00000000000000000000000000000000006040830152604f82019050919050565b6000612ab0600d836135e6565b91507f3c2f746578743e3c2f7376673e000000000000000000000000000000000000006000830152600d82019050919050565b6000612af06038836135d5565b91507f4552433732313a20617070726f76652063616c6c6572206973206e6f74206f7760008301527f6e6572206e6f7220617070726f76656420666f7220616c6c00000000000000006020830152604082019050919050565b6000612b56602a836135d5565b91507f4552433732313a2062616c616e636520717565727920666f7220746865207a6560008301527f726f2061646472657373000000000000000000000000000000000000000000006020830152604082019050919050565b6000612bbc6029836135d5565b91507f4552433732313a206f776e657220717565727920666f72206e6f6e657869737460008301527f656e7420746f6b656e00000000000000000000000000000000000000000000006020830152604082019050919050565b6000612c22602e836135d5565b91507f45524337323155524953746f726167653a2055524920736574206f66206e6f6e60008301527f6578697374656e7420746f6b656e0000000000000000000000000000000000006020830152604082019050919050565b6000612c886002836135e6565b91507f227d0000000000000000000000000000000000000000000000000000000000006000830152600282019050919050565b6000612cc86020836135d5565b91507f4552433732313a206d696e7420746f20746865207a65726f20616464726573736000830152602082019050919050565b6000612d086031836135d5565b91507f45524337323155524953746f726167653a2055524920717565727920666f722060008301527f6e6f6e6578697374656e7420746f6b656e0000000000000000000000000000006020830152604082019050919050565b6000612d6e602c836135d5565b91507f4552433732313a20617070726f76656420717565727920666f72206e6f6e657860008301527f697374656e7420746f6b656e00000000000000000000000000000000000000006020830152604082019050919050565b6000612dd46029836135d5565b91507f4552433732313a207472616e73666572206f6620746f6b656e2074686174206960008301527f73206e6f74206f776e00000000000000000000000000000000000000000000006020830152604082019050919050565b6000612e3a602f836135d5565b91507f4552433732314d657461646174613a2055524920717565727920666f72206e6f60008301527f6e6578697374656e7420746f6b656e00000000000000000000000000000000006020830152604082019050919050565b6000612ea0600a836135e6565b91507f7b226e616d65223a2022000000000000000000000000000000000000000000006000830152600a82019050919050565b6000612ee06021836135d5565b91507f4552433732313a20617070726f76616c20746f2063757272656e74206f776e6560008301527f72000000000000000000000000000000000000000000000000000000000000006020830152604082019050919050565b6000612f46600a836135e6565b91507f46495253545f574f5244000000000000000000000000000000000000000000006000830152600a82019050919050565b6000612f86601d836135e6565b91507f646174613a6170706c69636174696f6e2f6a736f6e3b6261736536342c0000006000830152601d82019050919050565b6000612fc66031836135d5565b91507f4552433732313a207472616e736665722063616c6c6572206973206e6f74206f60008301527f776e6572206e6f7220617070726f7665640000000000000000000000000000006020830152604082019050919050565b600061302c6005836135e6565b91507f434f4c4f520000000000000000000000000000000000000000000000000000006000830152600582019050919050565b61306881613770565b82525050565b600061307a8284612735565b915081905092915050565b60006130918285612735565b915061309d8284612735565b91508190509392505050565b60006130b58286612735565b91506130c18285612735565b91506130cd8284612735565b9150819050949350505050565b60006130e68287612766565b91506130f28286612735565b91506130fe8285612766565b915061310a8284612735565b915061311582612aa3565b915081905095945050505050565b600061312e8261288b565b915061313a8284612735565b915081905092915050565b600061315082612971565b915061315c8284612735565b915081905092915050565b600061317282612e93565b915061317e8285612735565b915061318982612a17565b91506131958284612735565b91506131a082612c7b565b91508190509392505050565b60006131b782612f39565b91506131c38284612735565b915081905092915050565b60006131d982612f79565b91506131e58284612735565b915081905092915050565b60006131fb8261301f565b91506132078284612735565b915081905092915050565b600060208201905061322760008301846126a5565b92915050565b600060808201905061324260008301876126a5565b61324f60208301866126a5565b61325c604083018561305f565b818103606083015261326e81846126c3565b905095945050505050565b600060408201905061328e60008301856126a5565b61329b602083018461305f565b9392505050565b60006020820190506132b760008301846126b4565b92915050565b600060208201905081810360008301526132d781846126fc565b905092915050565b600060608201905081810360008301526132f981866126fc565b9050613308602083018561305f565b61331560408301846126a5565b949350505050565b60006020820190508181036000830152613336816127e5565b9050919050565b600060208201905081810360008301526133568161284b565b9050919050565b60006020820190508181036000830152613376816128cb565b9050919050565b6000602082019050818103600083015261339681612931565b9050919050565b600060208201905081810360008301526133b6816129b1565b9050919050565b600060208201905081810360008301526133d681612ae3565b9050919050565b600060208201905081810360008301526133f681612b49565b9050919050565b6000602082019050818103600083015261341681612baf565b9050919050565b6000602082019050818103600083015261343681612c15565b9050919050565b6000602082019050818103600083015261345681612cbb565b9050919050565b6000602082019050818103600083015261347681612cfb565b9050919050565b6000602082019050818103600083015261349681612d61565b9050919050565b600060208201905081810360008301526134b681612dc7565b9050919050565b600060208201905081810360008301526134d681612e2d565b9050919050565b600060208201905081810360008301526134f681612ed3565b9050919050565b6000602082019050818103600083015261351681612fb9565b9050919050565b6000602082019050613532600083018461305f565b92915050565b6000604051905081810181811067ffffffffffffffff8211171561355f5761355e6138f5565b5b8060405250919050565b600067ffffffffffffffff821115613584576135836138f5565b5b601f19601f8301169050602081019050919050565b60008190508160005260206000209050919050565b600081519050919050565b600081519050919050565b600082825260208201905092915050565b600082825260208201905092915050565b600081905092915050565b60006135fc82613770565b915061360783613770565b9250827fffffffffffffffffffffffffffffffffffffffffffffffffffffffffffffffff0382111561363c5761363b613868565b5b828201905092915050565b600061365282613770565b915061365d83613770565b92508261366d5761366c613897565b5b828204905092915050565b600061368382613770565b915061368e83613770565b9250817fffffffffffffffffffffffffffffffffffffffffffffffffffffffffffffffff04831182151516156136c7576136c6613868565b5b828202905092915050565b60006136dd82613770565b91506136e883613770565b9250828210156136fb576136fa613868565b5b828203905092915050565b600061371182613750565b9050919050565b60008115159050919050565b60007fffffffff0000000000000000000000000000000000000000000000000000000082169050919050565b600073ffffffffffffffffffffffffffffffffffffffff82169050919050565b6000819050919050565b82818337600083830152505050565b60005b838110156137a757808201518184015260208101905061378c565b838111156137b6576000848401525b50505050565b600060028204905060018216806137d457607f821691505b602082108114156137e8576137e76138c6565b5b50919050565b60006137f982613770565b91507fffffffffffffffffffffffffffffffffffffffffffffffffffffffffffffffff82141561382c5761382b613868565b5b600182019050919050565b600061384282613770565b915061384d83613770565b92508261385d5761385c613897565b5b828206905092915050565b7f4e487b7100000000000000000000000000000000000000000000000000000000600052601160045260246000fd5b7f4e487b7100000000000000000000000000000000000000000000000000000000600052601260045260246000fd5b7f4e487b7100000000000000000000000000000000000000000000000000000000600052602260045260246000fd5b7f4e487b7100000000000000000000000000000000000000000000000000000000600052604160045260246000fd5b6000601f19601f8301169050919050565b61393e81613706565b811461394957600080fd5b50565b61395581613718565b811461396057600080fd5b50565b61396c81613724565b811461397757600080fd5b50565b61398381613770565b811461398e57600080fd5b5056fe416e204e465420772f20494420257320686173206265656e206d696e74656420746f2025734142434445464748494a4b4c4d4e4f505152535455565758595a6162636465666768696a6b6c6d6e6f707172737475767778797a303132333435363738392b2fa2646970667358221220fbb3709ce191f1456139eb1673026c2219233b3de2634ab83139d656ee640cf164736f6c63430008000033272f3e3c7465787420783d273530252720793d273530252720636c6173733d27626173652720646f6d696e616e742d626173656c696e653d276d6964646c652720746578742d616e63686f723d276d6964646c65273e3c73766720786d6c6e733d27687474703a2f2f7777772e77332e6f72672f323030302f73766727207072657365727665417370656374526174696f3d27784d696e594d696e206d656574272076696577426f783d273020302033353020333530273e3c7374796c653e2e62617365207b2066696c6c3a20233030373243453b20666f6e742d66616d696c793a2073657269663b20666f6e742d73697a653a20323470783b207d3c2f7374796c653e3c726563742077696474683d273130302527206865696768743d2731303025272066696c6c3d27",
  "linkReferences": {},
  "deployedLinkReferences": {}
}